:1000000019C033C032C031C030C02FC02EC02DC087
:100010002CC02BC02AC0B3C228C027C026C025C010
:1000200024C023C022C021C020C01FC01EC01DC0CC
:100030001CC01BC011241FBECFEFD4E0DEBFCDBF5C
:1000400013E0A0E0B1E0E2E2F0E102C005900D9221
:10005000A236B107D9F723E0A2E6B3E001C01D92B2
:10006000A43AB207E1F7A2D2DAC7CACFECE7F0E0D0
:100070009081907F892B80838AE18A95F1F700C077
:10008000EAE7F0E0808180648083808184FFFDCF97
:10009000EAE7F0E080818061808380917800909130
:1000A0007900089518B817B8ECE7F0E08081806413
:1000B0008083EAE7F0E0808185688083089580E2AC
:1000C0008093B800089584EA8093BC00ECEBF0E0E4
:1000D00080818823ECF708958093BB0084E88093A7
:1000E000BC00ECEBF0E080818823ECF708951092DF
:1000F000620384E88093BC00ECEBF0E0808188230D
:10010000ECF78091B900887F883521F081E08093F9
:10011000620302C0109262038091BB000895CF93E6
:10012000DF93C82FD62FCFDF8EEED6DF8D2FD4DF13
:100130008C2FD2DF84E98093BC00DF91CF910895AA
:10014000CF93C82FC0DF8EEEC7DF8C2FC5DFBBDF9C
:100150008FEEC2DFCCDF94E99093BC00CF9108957D
:10016000CF92DF92EF92FF920F931F9364EF8EE294
:10017000D6DF8FE097E20197F1F700C0000086EF2D
:10018000DFDFF82E87EFDCDF2F2D30E0322F222744
:10019000280F311DA901330F660B770B8091720375
:1001A000909173039A01AB01281B390B4109510946
:1001B000A0917803B091790322D76B017C010B2EBB
:1001C000BFE0F594E794D794C794BA95D1F7B02DD2
:1001D00080919D0360E070E0782F770F770F770FA5
:1001E000072E000C880B990B20916E0330916F0342
:1001F0008901330F220B330BA90198012C0D3D1DF2
:100200004E1D5F1DD4D6C20ED31EE41EF51EC09235
:100210007C03D0927D03E0927E03F0927F0398E00E
:10022000C90ED11CE11CF11CC701B601689413F87A
:1002300095958795779567951694D1F73CD51F913D
:100240000F91FF90EF90DF90CF9008954F925F92C3
:100250006F927F928F929F92AF92BF92CF92DF92D6
:10026000EF92FF92CF93DF9300D000D0CDB7DEB7EF
:1002700064EF84E754DF8FE79EE30197F1F700C056
:10028000000086EF5DDFC82E87EF5ADFD12CDC2C13
:10029000CC240D2C000CEE08FF087E2D6D2D5C2D5E
:1002A0004427C82ED12CDC2CCC240D2C000CEE08BD
:1002B000FF08C40ED51EE61EF71E88EF41DFE82FAB
:1002C00040907C0350907D0360907E0370907F038C
:1002D00090EA491A9FE0590A61087108A301920146
:1002E000C301B20133D69B01AC01012E1CE0559530
:1002F0004795379527951A95D1F7102D29833A837D
:100300004B835C83A0918C03B0918D0382D64B010B
:100310005C01072E7BE0B594A794979487947A9517
:10032000D1F7702DA0918803B0918903A3019201A8
:1003300070D6DC01CB01072E7BE0B595A79597958C
:1003400087957A95D1F7702D880E991EAA1EBB1E2F
:100350008091700390917103880F991F880F991FE6
:10036000092E000CAA0BBB0B880E991EAA1EBB1EE1
:10037000880C991CAA1CBB1C32E0830E911CA11C8A
:10038000B11CB594A79497948794B594A794979427
:100390008794A0918A03B0918B03A301920139D66F
:1003A0002B013C01032E3DE07594679457944794CC
:1003B0003A95D1F7302DA0919B03B0919C032981F0
:1003C0003A814B815C8125D6BB2797FDB095AB2F39
:1003D000840D951DA61DB71D0296A11DB11DAC0172
:1003E000BD0175956795579547957595679557958F
:1003F000479540938E0350938F03609390037093BF
:100400009103A0918003B09181039A01AB01305810
:100410004F4F5F4FF4D52B013C01032E3FE0769404
:100420006794579447943A95D1F7302DD701C60178
:100430008E0F911DA11DB11D689416F8B595A79555
:10044000979587951694D1F79C01AD012819390924
:100450004A095B09A8EAB1E6D2D5992384F0660F70
:10046000771F881F991FA30192017FD520939F03B7
:100470003093A0034093A1035093A20311C0A301A2
:10048000920173D5DA01C901880F991FAA1FBB1FFA
:1004900080939F039093A003A093A103B093A20322
:1004A000C0909F03D090A003E090A103F090A2031E
:1004B0009927F7FC9A958F2D7E2D6D2D9B01AC0110
:1004C00045D59B01AC01AEEDBBE099D54C01BB24F9
:1004D00097FCB094AB2C8092840390928503A092F9
:1004E0008603B0928703A3E4B3EEA701960193D5E8
:1004F000BB2797FDB095AB2F809374039093750342
:10050000A0937603B0937703880D991DAA1DBB1D98
:100510008153914FAF4FBF4F689413F8B595A7958E
:10052000979587951694D1F79C01AD012C0D3D1D33
:100530004E1D5F1DA8EFB2E062D52DEC3BE841E017
:1005400050E035D520939F033093A0034093A1033F
:100550005093A203CA01B9010F900F900F900F9012
:10056000DF91CF91FF90EF90DF90CF90BF90AF9051
:100570009F908F907F906F905F904F9008951F9203
:100580000F920FB60F9211248F93809164038E31D6
:1005900011F410926403809164038F5F809364036D
:1005A0008F910F900FBE0F901F9018958AEAC8DDAB
:1005B000C82F8BEAC5DD2C2F30E0322F2227280FE1
:1005C000311D30937103209370038CEAB9DDC82F7D
:1005D0008DEAB6DD2C2F30E0322F2227280F311D77
:1005E00030938903209388038EEAAADDC82F8FEA0F
:1005F000A7DD2C2F30E0322F2227280F311D30931A
:100600008B0320938A0380EB9BDDC82F81EB98DD61
:100610002C2F30E0322F2227280F311D30938103F9
:100620002093800382EB8CDDC82F83EB89DD2C2F98
:1006300030E0322F2227280F311D30937903209389
:10064000780384EB7DDDC82F85EB7ADD2C2F30E03D
:10065000322F2227280F311D30937303209372030A
:1006600086EB6EDDC82F87EB6BDD2C2F30E0322F51
:100670002227280F311D30939C0320939B0388EB86
:100680005FDDC82F89EB5CDD2C2F30E0322F222775
:10069000280F311D30938D0320938C038CEB50DD9C
:1006A000C82F8DEB4DDD2C2F30E0322F2227280F65
:1006B000311D30939E0320939D038EEB41DDC82FA7
:1006C0008FEB3EDD2C2F30E0322F2227280F311DFB
:1006D00030936F0320936E038FEF84B9F0DC45D124
:1006E00038D2E0DC389A5F9A8AE090E090938900F3
:1006F0008093880028D17894C8E8D0E086E0B6DC02
:10070000BC0180E090E0D5D22FE832EC45ED50E41A
:10071000BAD320E030EC4FE754E437D2609369035A
:1007200070936A0380936B0390936C0387E09EDC65
:10073000BC0180E090E0BDD26093650370936603D6
:1007400080936703909368038091630381114FC086
:1007500040E051E060E04CD14091970350E022E04E
:1007600060E08DE254D149E051E060E089E340D19E
:1007700040919A0350E021E060E08FE348D14BE0E4
:1007800051E060E086E434D14DE051E061E080E08A
:100790002FD14091980350E022E061E089E337D106
:1007A00048E151E061E088E423D14AE151E063E0AF
:1007B00080E01ED1D5DC51D223E0AB0163E083E2BF
:1007C00026D14BE051E063E081E412D141E251E0F7
:1007D00064E080E00DD13ADD24E0AB0164E088E222
:1007E00016D149E251E064E084E402D13EC04CE21B
:1007F00051E060E080E0FCD06091690370916A0391
:1008000080916B0390916C0328D221E0AB0160E0F2
:1008100087E3FDD049E051E060E08DE3E9D06091ED
:10082000690370916A0380916B0390916C0320E0DF
:1008300030E040E251E481D210D221E0AB0160E02F
:1008400082E4E5D046E351E061E080E0D1D0609100
:100850006503709166038091670390916803FDD1F1
:1008600024E0AB0161E089E1D2D089B1827080934C
:10087000920390919503992339F0811105C08881E5
:1008800099810A9699838883809192038093950336
:1008900089B1847080936D0390917A03992339F024
:1008A000811105C0888199810A97998388838091F5
:1008B0006D0380937A034091640350E023E065E088
:1008C00080E0A5D089B188708093960390917B03D6
:1008D000992349F0811107C09091630381E0892732
:1008E0008093630330D08091960380937B0389B11A
:1008F00080718093A30390919903992331F0811122
:1009000004C098B181E0892788B98091A3038093BE
:1009100099034881598123E065E080E078D0EECEEC
:10092000613011F42B980DC02B9A0BC0882314F45E
:100930002D9A01C02D982C98880F2C9A9150B1F7C0
:10094000089598E0F3CFCF93DF9361E08CE0E8DF88
:1009500061E080E8E5DFC8EFD1E060E080E0E0DF63
:100960002197D9F7DF91CF910895289882E08A9551
:10097000F1F700C0289A82E08A95F1F700C061E0A3
:1009800081E2CEDF61E088ECCBDF61E086E0C8DFAA
:1009900061E083E1C5DF61E080E2C2DF61E08CE01D
:1009A000BFDFD1DF0895CF93C82F862F61E0806429
:1009B000B7DF61E08C2F8068B3DFCF9108951F937C
:1009C000CF93DF93805290E0EC01CC0FDD1FC80F76
:1009D000D91FCC0FDD1FC65CDE4F10E060E08991AF
:1009E0009FDF1F5F1630D1F7DF91CF911F910895E0
:1009F000CF93DF93EA01D7DF8881882329F02196FE
:100A0000DEDF89918111FCCFDF91CF9108951F9393
:100A1000CF93DF93EA01122FC6DF133089F138F448
:100A2000113009F477C0123009F450C08EC0143070
:100A3000A9F0153009F089C09E01329522952F70DA
:100A400023273F702327A7E4B3E0CDD2969587955F
:100A50009695879596958795805DB1DF9E01369531
:100A600027953695279536952795A5ECB0E2BBD20C
:100A7000929582958F7089279F708927805D9FDF6F
:100A80009E013695279536952795ABE7B4E1ABD215
:100A9000AC01569547959A01ADECBCECA4D2969565
:100AA000879596958795969587959C01220F331F7C
:100AB000880F991F880F991F880F991F820F931F06
:100AC0009A01281B390BC901805D79DF9E01ADECCD
:100AD000BCEC89D2AC0156954795569547955695ED
:100AE00047959A0180D29695879596958795969584
:100AF00087959C01220F331F880F991F880F991F1C
:100B0000880F991F820F931F9A01281B390BC90167
:100B1000805D55DF9E01ADECBCEC65D29695879566
:100B200096958795969587959C01220F331F880F80
:100B3000991F880F991F880F991F820F931F9E017D
:100B4000281B390BC901805D3ADFDF91CF911F91DE
:100B50000895219A569A84B5836084BD85B58260D4
:100B600085BDE0E8F0E0808183688083E1E8F0E023
:100B7000808189608083EFE6F0E0808182608083FD
:100B8000E2E8F0E08081808308950CD042C13AD140
:100B900040F031D130F021F45F3F19F015C151110F
:100BA0006CC126C147D198F39923C9F35523B1F3FA
:100BB000951B550BBB27AA2762177307840738F0CC
:100BC0009F5F5F4F220F331F441FAA1FA9F333D02B
:100BD0000E2E3AF0E0E830D091505040E695001CDF
:100BE000CAF729D0FE2F27D0660F771F881FBB1F9B
:100BF000261737074807AB07B0E809F0BB0B802D75
:100C0000BF01FF2793585F4F2AF09E3F510568F0C0
:100C1000DBC033C15F3FECF3983EDCF386957795FC
:100C20006795B795F7959F5FC9F7880F911D9695C2
:100C3000879597F90895E1E0660F771F881FBB1F1E
:100C4000621773078407BA0720F0621B730B840BCB
:100C5000BA0BEE1F88F7E0950895F4D088F09F57FF
:100C600090F0B92F9927B751A0F0D1F0660F771FF8
:100C7000881F991F1AF0BA95C9F712C0B13081F0D8
:100C8000FBD0B1E00895F8C0672F782F8827B85FB0
:100C900039F0B93FCCF3869577956795B395D9F739
:100CA0003EF490958095709561957F4F8F4F9F4F43
:100CB0000895E89409C097FB3EF49095809570954F
:100CC00061957F4F8F4F9F4F9923A9F0F92F96E998
:100CD000BB279395F695879577956795B795F1110D
:100CE000F8CFFAF4BB0F11F460FF1BC06F5F7F4FAA
:100CF0008F4F9F4F16C0882311F096E911C07723BC
:100D000021F09EE8872F762F05C0662371F096E8C4
:100D1000862F70E060E02AF09A95660F771F881F93
:100D2000DAF7880F9695879597F9089564D018F0AB
:100D300011F068D038F45CC0A0C0E92F7BD0B0F3CC
:100D40005523C9F3E7FB6217730784079507A8F1DA
:100D500099F3E92FFF2788232AF03197660F771F31
:100D6000881FDAF7952F5527442332F091505040D1
:100D7000220F331F441FD2F7BB27E91BF50B621B61
:100D8000730B840BB109C1F222F4620F731F841F2D
:100D9000B11D31972AF0660F771F881FBB1FEFCF59
:100DA000915050405AF041F0882332F0660F771F7F
:100DB000881F91505040C1F793950CC08695779548
:100DC00067959F5FD9F7F8CF97F99F6780E870E044
:100DD00060E008959F3F31F0915020F4879577951A
:100DE0006795B795880F911D9695879597F9089502
:100DF0009FEF80EC089500240A9416161706180633
:100E00000906089500240A9412161306140605060E
:100E10000895092E0394000C11F4882352F0BB0F9F
:100E200040F4BF2B11F460FF04C06F5F7F4F8F4F02
:100E30009F4F089557FD9058440F551F59F05F3F3D
:100E400071F04795880F97FB991F61F09F3F79F0EC
:100E500087950895121613061406551FF2CF46956E
:100E6000F1DF08C0161617061806991FF1CF8695F0
:100E70007105610508940895E894BB2766277727D4
:100E8000CB0197F908950BD0C4CFB5DF28F0BADFB6
:100E900018F0952309F098CFABCF1124EECFCADF1D
:100EA000A0F3959FD1F3950F50E0551F629FF0017D
:100EB000729FBB27F00DB11D639FAA27F00DB11DD6
:100EC000AA1F649F6627B00DA11D661F829F22275F
:100ED000B00DA11D621F739FB00DA11D621F839FE6
:100EE000A00D611D221F749F3327A00D611D231FBC
:100EF000849F600D211D822F762F6A2F11249F570A
:100F000050408AF0E1F088234AF0EE0FFF1FBB1F2C
:100F1000661F771F881F91505040A9F79E3F5105CB
:100F200070F052CFAACF5F3FECF3983EDCF386958A
:100F300077956795B795F795E7959F5FC1F7FE2B76
:100F4000880F911D9695879597F90895DB018F93EA
:100F50009F9355D0BF91AF91A29F800D911DA39FEC
:100F6000900DB29F900D11240895A1E21A2EAA1B94
:100F7000BB1BFD010DC0AA1FBB1FEE1FFF1FA21749
:100F8000B307E407F50720F0A21BB30BE40BF50B46
:100F9000661F771F881F991F1A9469F760957095CF
:100FA000809590959B01AC01BD01CF010895052E60
:100FB00097FB16F400940FD057FD05D0D6DF07FC41
:100FC00002D046F408C050954095309521953F4F8A
:100FD0004F4F5F4F089590958095709561957F4F25
:100FE0008F4F9F4F0895A29FB001B39FC001A39F51
:100FF00001D0B29F700D811D1124911D0895F3DF62
:10100000A59F900DB49F900DA49F800D911D11245C
:101010000895B7FFF4CFF3DF821B930B0895F89484
:02102000FFCF00
:1010220054656D7065723A20002E00430048756D5C
:1010320069646974793A2000250054656D703A201C
:101042000050726573733A200050610042617474FB
:101052006572793A200048563A000000000000000C
:101062000000002F000000000700070000147F149A
:101072007F1400242A7F2A12006264081323003698
:101082004955225000000503000000001C224100C7
:10109200000041221C000014083E08140008083E0B
:1010A2000808000000A06000000808080808000006
:1010B20060600000002010080402003E5149453ED5
:1010C2000000427F400000426151494600214145F3
:1010D2004B31001814127F10002745454539003C5A
:1010E2004A49493000017109050300364949493628
:1010F20000064949291E0000363600000000563617
:1011020000000008142241000014141414140000FA
:101112004122140800020151090600324959513E88
:10112200007C1211127C007F49494936003E414140
:101132004122007F4141221C007F49494941007FF1
:1011420009090901003E4149497A007F0808087FE0
:101152000000417F4100002040413F01007F081410
:101162002241007F40404040007F020C027F007F0E
:101172000408107F003E4141413E007F09090906F3
:10118200003E4151215E007F091929460046494926
:1011920049310001017F0101003F4040403F001FF3
:1011A2002040201F003F4038403F00631408146372
:1011B20000070870080700615149454300007F415C
:1011C200410000552A552A55000041417F00000484
:1011D20002010204004040404040000001020400BD
:1011E200002054545478007F484444380038444422
:1011F200442000384444487F0038545454180008AE
:101202007E0901020018A4A4A47C007F08040478CB
:101212000000447D4000004080847D00007F102853
:1012220044000000417F4000007C04180478007CE8
:101232000804047800384444443800FC2424241868
:101242000018242418FC007C0804040800485454A4
:10125200542000043F444020003C4040207C001CBD
:101262002040201C003C4030403C004428102844D0
:10127200001CA0A0A07C004464544C441414141418
:02128200141442
:00000001FF
